:03000000021A12CF
:0C1A1200787FE4F6D8FD7581210217AF43
:0C1A1E00759850438920758DFDD28E22F2
:081A2A008F993099FDC2992249
:081A32003098FDC298AF992223
:1019A30090002FEBF0A3EAF0A3E9F090002FE0FB07
:1019B300A3E0FAA3E0F91208F6601790002FA3E45E
:1019C30075F001120943A9F0FA1208F6FF121A2A58
:0319D30080D92296
:10194F00900071EBF0A3EAF0A3E9F0121A329000C5
:10195F0071E0FBA3E0FAA3E0F9EF12090F90007119
:10196F00E0FBA3E0FAA3E0F91208F6FF121A2A909F
:10197F000071E0FBA3E475F001120943A9F0FA121C
:10198F0008F6B40DC6900071E0FBA3E0FAA3E0F9EE
:04199F00E402090F46
:1018F700363420556E7369676E6564204E756D6268
:1019070065722043616C63756C61746F7200547902
:101917007065207468652065787072657373696F88
:101927006E207468656E20707265737320656E74BF
:1019370065723A00526573756C7400307800256CD7
:0819470078004552524F520096
:1017AF00E4900016F090000D120A54000000009013
:1017BF000011120A5400000000900017120A540082
:1017CF0000000090001B120A5400000000121A1EA5
:1017DF007BFF7A1879F71219A37F0D121A2A7BFF54
:1017EF007A1979151219A37F0D121A2A90003274E3
:1017FF0001F0A37400F0A37417F0A37401F0A374A5
:10180F0000F0A37415F07B017A00790D120C4E9045
:10181F000015E01460030218E0EF642B6003021858
:10182F00E97B0190003204F0A37400F0A37417F069
:10183F007A00790D121601781F7C007D017E007FE2
:10184F00101208D07BFF7A19793B1219A37F0D1262
:10185F001A2A7BFF7A1979421219A3E4900016F025
:10186F00900016E0FFC364809484506EEF3395E0D0
:10187F00FEEF7802C333CE33CED8F9241FF582742E
:10188F00003EF583E0FCA3E0FDA3E0FEA3E0FF90A4
:10189F000009120A4890003274FFF0A37419F0A3E4
:1018AF007445F0900009E0FCA3E0FDA3E0FEA3E087
:1018BF00FF900035120A487B017A0079001210AFB1
:1018CF007B017A0079001219A3900016E004F080D2
:1018DF008F7BFF7A1979491219A3121A32BF0DFAA9
:0818EF007F0C121A2A0217DF18
:0B16010090002FEBF0A3EAF0A3E9F04B
:10160C00E490003DF0A3F0FBEB25E025E0243FF552
:10161C0082E43400F583120A54000000000BEBB492
:10162C0004E6900032E0FBA3E0FAA3E0F99000049A
:10163C0012098A90002FE0FBA3E0FAA3E0F99000D6
:10164C0004120A18EB2FFFEA3EFEE93DFDE83CFCD4
:10165C00900035120A48900032E0FBA3E0FAA3E0B8
:10166C00F990000412098A90002FE0FBA3E0FAA382
:10167C00E0F9900004120A18D312095940059000A1
:10168C002F8003900032E0FBA3E0FAA3E0F9900076
:10169C000412098A900035E0F8A3E0F9A3E0FAA35C
:1016AC00E0FBC3120959501090003D7401F09000FA
:1016BC0035120A54FFFFFFFE900032E0FBA3E0FA64
:1016CC00A3E0F912096A90002FE0FBA3E0FAA3E073
:1016DC00F91209F8EB2FFBEA3EFAE93DF9E83CF880
:1016EC0090003DE0FFE4FCFDFEEB2FFFEE3AFEED3B
:1016FC0039FDEC38FC900039120A48900032E0FBBE
:10170C00A3E0FAA3E0F912096A90002FE0FBA3E032
:10171C00FAA3E0F91209F8D3120959400590002FE9
:10172C008003900032E0FBA3E0FAA3E0F912096A0F
:10173C00900039E0F8A3E0F9A3E0FAA3E0FBC312B0
:10174C000959502190003E7401F090003DE0FFEFEC
:10175C0024FEFFE434FFFEE434FFFDE434FFFC9090
:10176C000039120A48900035E0FCA3E0FDA3E0FE2E
:10177C00A3E0FF90004B120A48900039E0FCA3E074
:10178C00FDA3E0FEA3E0FF900047120A4890003E44
:10179C00E0FFE4FCFDFE900043120A487B017A0056
:0217AC00793F83
:0117AE002218
:0B0C4E0090002FEBF0A3EAF0A3E9F008
:100C5900E4900038F090006BF0A3F0A3F0A3F090BB
:100C69000035E0FBA3E0FAA3E0F9E412090F7B01E8
:100C79007A00793912194F900039E0B4300CA3E0A9
:100C8900FF64786015EF64586010900035E0FBA3AD
:100C9900E0FAA3E0F9740212090F90006BE024391D
:100CA900F582E43400F583E0FF607B900035E0FBDA
:100CB900A3E0FAA3E0F964014A606BEF642A6019C2
:100CC90090006BE02439F582E43400F583E0642B6D
:100CD9006007740312090F804490006BE02439F512
:100CE90082E43400F583E0900038F0740112090FB2
:100CF90090006BE024FE90006DF07B017A00793959
:100D09001219FDEF24FEFF90006BE0FE2403FDC3E2
:100D1900EF9D90006EF0900070EEF0800990006BEE
:100D2900E004F0020CA3900070E0FF243AF582E49D
:100D39003400F583E0B43015743B2FF582E43400B8
:100D4900F583E0FF64786015EF6458601090003512
:100D5900E0FBA3E0FAA3E0F9740212090F90003551
:100D6900E0FBA3E0FAA3E0F91208F66401600302CC
:100D79000E6390006C7402F0900070E0FF90006CBC
:100D8900E0FEC39F5055900035E0FBA3E0FAA3E0D5
:100D9900F91208F66404604374392EF582E43400CC
:100DA900F583E0FE90006FF07439C39E4005E0942E
:100DB90030502090006FE0FE7446C39E4005EE94CB
:100DC9004150107466C39E4005EE94615005740449
:100DD90012090F90006CE004F0809DEF240390004D
:100DE9006CF07B017A0079391219FDEF24FEFFEED0
:100DF90034FFFE90006CE0D39FEE6480F874809815
:100E09005058900035E0FBA3E0FAA3E0F91208F688
:100E19006404604690006CE02439F582E43400F5FE
:100E290083E0FF90006FF07439C39F4005E0943070
:100E3900502090006FE0FF7446C39F4005EF944136
:100E490050107466C39F4005EF94615005740412F5
:100E5900090F90006CE004F08088900035E0FBA356
:100E6900E0FAA3E0F91208F6640160030210449065
:100E7900005F04F0A37400F0A3743BF090006DE0F0
:100E8900D39408503EE02401FFE433FE90005FE074
:100E9900FBA3E0FAA3E0F98F828E83E41209219083
:100EA9000074E4F0A3F0A3F0A37410F01213AF9050
:100EB900002FE0FBA3E0FAA3E0F99000041209D4A3
:100EC900020F6090006DE0FF7E002401FDEE33FC0F
:100ED90090005FE0FBA3E0FAA3E0F98D828C83E444
:100EE900120921E92FF9EE3AFAE924F8F9EA34FF6F
:100EF900FA900062EBF0A3EAF0A3E9F0900074E441
:100F0900F0A3F0A3F0A37410F01213AF90002FE038
:100F1900FBA3E0FAA3E0F99000041209D49000625F
:100F2900E0FBA3E0FAA3E0F9E412090FF9900074D9
:100F3900C9F0A3F0A3E9F0A37410F090005FE0FBFF
:100F4900A3E0FAA3E0F91213AF90002FE0FBA3E0AE
:100F5900FAA3E0F91209BA900070E0243CF9E434EC
:100F690000FA7B01900065EBF0A3EAF0A3E9F090A9
:100F7900006EE0FFF582758300A3E4120921EFD327
:100F8900940850301B900074EBF0A3F0A3F0A37405
:100F990010F0900065E0FBA3E0FAA3E0F91213AFAB
:100FA900900032E0FBA3E0FAA3E0F99000041209F3
:100FB900D4021044900065E0FBA3E0FAA3E0F990A5
:100FC900006EE0FF7E00E92FF9EE3AFAE924F8F91C
:100FD900EA34FFFA900068EBF0A3EAF0A3E9F09095
:100FE9000074E4F0A3F0A3F0A37410F01213AF900F
:100FF9000032E0FBA3E0FAA3E0F99000041209D45F
:10100900900068E0FBA3E0FAA3E0F9900001E41284
:101019000921900074E4F0A3F0A3F0A37410F090F8
:101029000065E0FBA3E0FAA3E0F91213AF900032E8
:10103900E0FBA3E0FAA3E0F91209BA900038E0FF57
:011049002284
:10080000E709F608DFFA8046E709F208DFFA803EDA
:1008100088828C83E709F0A3DFFA8032E309F608C7
:10082000DFFA8078E309F208DFFA807088828C832F
:10083000E309F0A3DFFA806489828A83E0A3F608E3
:10084000DFFA805889828A83E0A3F208DFFA804CBD
:1008500080D280FA80C680D4806980F28033801094
:1008600080A680EA809A80A880DA80E280CA8033FD
:1008700089828A83ECFAE493A3C8C582C8CCC58375
:10088000CCF0A3C8C582C8CCC583CCDFE9DEE78045
:100890000D89828A83E493A3F608DFF9ECFAA9F0C4
:1008A000EDFB2289828A83ECFAE0A3C8C582C8CC1A
:1008B000C583CCF0A3C8C582C8CCC583CCDFEADE33
:1008C000E880DB89828A83E493A3F208DFF980CC95
:1008D00088F0EF60010E4E60C388F0ED2402B4048E
:1008E0000050B9F582EB2402B4040050AF23234535
:0608F00082239008507302
:1008F600BB010689828A83E0225002E722BBFE0200
:09090600E32289828A83E4932232
:10090F00BB010689828A83F0225002F722BBFE01C7
:02091F00F322C1
:10092100F8BB010DE58229F582E5833AF583E8F00C
:10093100225006E92582C8F622BBFE05E92582C8B8
:02094100F222A0
:10094300A3F8E0C5F025F0F0E58215827002158367
:06095300E0C838F0E822C4
:10095900EB9FF5F0EA9E42F0E99D42F0E89C45F0F4
:01096900226B
:10096A00BB010789828A83020B315005E9F8020B21
:10097A0025BBFE05E9F8020B3D89828A83020B49F1
:10098A00BB010DE58229F582E5833AF583020B3135
:10099A005007E92582F8020B25BBFE07E92582F8F4
:1009AA00020B3DE58229F582E5833AF583020B497C
:1009BA00BB010789828A83020A485005E9F8020BBB
:0A09CA008FBBFE05E9F8020B9B222B
:1009D400BB010DE58229F582E5833AF583020A48D5
:1009E4005007E92582F8020B8FBBFE07E92582F840
:0409F400020B9B2235
:1009F800BB010789828A83020B665005E9F8020B5E
:100A080059BBFE05E9F8020B7289828A83020B7FC3
:100A1800BB010DE58229F582E5833AF583020B6671
:100A28005007E92582F8020B59BBFE07E92582F831
:100A3800020B72E58229F582E5833AF583020B7F82
:0C0A4800ECF0A3EDF0A3EEF0A3EFF02221
:100A5400A8828583F0D083D082120A6B120A6B12AB
:100A64000A6B120A6BE473E493A3C583C5F0C583D0
:100A7400C8C582C8F0A3C583C5F0C583C8C582C8EC
:010A8400224F
:10104A00E5082432F582E43400F583E005082290AD
:10105A00002F300703900032E475F001120BA7024B
:10106A0008F62000E97F2ED2008018EF540F249052
:10107A00D43440D4FF30040BEF24BFB41A00500319
:10108A002461FFE50960021509050CE50C700205EB
:10109A000B30070E90002FE475F001120BA7EF0238
:1010AA00090F0219D67403D2078003E4C207F508B0
:1010BA0090002F120BBEE4F509F50BF50CE509605B
:1010CA00077F2012108D80F5750AFFC201C200C287
:1010DA0002C203C205C206C208121059FF700D30BF
:1010EA0007057F0012109EAF0CAE0B22B4255FC21B
:1010FA00D5C204121059FF24D0B40A00501A75F050
:10110A000A780930D50508B6FF0106C6A426F620D6
:10111A00D5047002D20380D924CFB41A00EF500448
:10112A00C2E5D20402129FD20180C6D20080C0D288
:10113A000280BCD2D580BAD20580B47F2012108D2D
:10114A002002077401B5090040F112104AFF12107B
:10115A008D0210C7D208D206809512104AFB1210CF
:10116A004AFA12104AF94A4B700679707A137BFFD1
:10117A0020022EE509602A7E008E82758300120AFB
:10118A008560060EEE650A70F0C2D5EBC0E0EAC0D3
:10119A00E0E9C0E0EE1212E6D0E0F9D0E0FAD0E0E1
:1011AA00FB1208F6FF60AAEBC0E0EAC0E0E9C0E083
:1011BA0012108DD0E02401F9D0E03400FAD0E0FB1F
:1011CA00E50A0460DCD50AD980877BFF7A1279E2C6
:1011DA00D202809C791080027908C206C20880086F
:1011EA00D2D5790A8004790AC2D5E50A047002F5D3
:1011FA000AE4FAFDFEFF12104AFC7B0820011312D2
:10120A00104AFD7B1030000A12104AFE12104AFFE3
:10121A007B20EC3382D592D55013C3E43000069F6D
:10122A00FFE49EFEE42001039DFDE49CFCE4CBF870
:10123A00C201EC700CCFCECDCCE824F8F870F38064
:10124A0017C3EF33FFEE33FEED33FDEC33FCEB3324
:10125A00FB994002FB0FD8E9EB300105F8D0E0C456
:10126A0048B201C0E00AEC4D4E4F78207B0070C2B4
:10127A00EAB50A0040BCC0E01212E8D0F0D0E02083
:10128A000104C4C0E0C4B201C0F0121076D0F0D597
:10129A00F0EB0210C7120C1611645311DE58113507
:1012AA004C11314211E24F11EA4411EA49114A4301
:0812BA0011F05511D44611D4C6
:1012C2004511D44713905011392D113D2E11602B29
:1012D200114123115E2013792A10F9480000115898
:1012E2003F3F3F00790AA2D5200314300509B91007
:1012F200020404B9080104A2D52006025001042008
:1013020002689202B509005034C0E07F2030031910
:101312007F30A20272067205500F12133FC202C240
:1013220006C205C2087F30800F300503E9C0E01213
:10133200108D300503D0E0F9D0E0B509CC300517A7
:101342007F30B9100C12108D7F583004077F7880DF
:1013520003B9080312108D3002057F2D02108D7F14
:10136200202008F87F2B2006F322920280CF286EDD
:10137200756C6C2900D20112104A3001F8C2017852
:101382000930D50108F60210F92D504349581210C0
:101392004A2403B405004001E490138B9312107E9B
:0D13A200743A12107ED2037509040211DEA8
:1019FD00E4FFFE1208F6600C0FEF70010E09E9709E
:051A0D00F20A80EF2247
:1013AF00900071EBF0A3EAF0A3E9F090007A120A33
:1013BF005400000000E4900078F0A3F0900074E077
:1013CF00FBA3E0FAA3E0F9EA494B6020900071E03B
:1013DF00FBA3E0FAA3E0F9EBC0E0EAC0E0E9C0E06C
:1013EF00A3E0FBA3E0FAA3E0F9120BC7900071E0B2
:1013FF00FBA3E475F001120943A9F0FA1208F69065
:10140F00007EF0E0FFC394094006EFD3940D40DC5B
:10141F00EF642060D7EFB42D0C900078E0F0A3E0DC
:10142F004403F0801D90007EE0B42B0C900078E018
:10143F00F0A3E04401F0800A90007274FFF5F012FF
:10144F000AB2900077E0600464107051900071E070
:10145F00FBA3E0FAA3E0F91208F66430600B9000EA
:10146F0077E07039740AF08034900001120A85FF1A
:10147F0064786004EFB4581C900078E0F0A3E04467
:10148F0001F09000777410F0900072E475F0021282
:10149F000AB28009900077E070037408F090007131
:1014AF00E0FBA3E475F001120943A9F0FA1208F664
:1014BF0090007EF0E0FFC39461400AEFD3947A501E
:1014CF0004EF54DFF090007EE024D0F0E0FFC394EF
:1014DF000A400FEF9411500302158E90007EE02406
:1014EF00F9F0900077E0FB90007EE0C39B40030291
:1014FF00158E900078E0F0A3E04401F0A3E0FCA388
:10150F00E0FDA3E0FEA3E0FF90007F120A48EBFF8F
:10151F007E00E4FCFD90007AE0F8A3E0F9A3E0FA86
:10152F00A3E0FB120AC8C8ECC8C9EDC9CAEECACB02
:10153F00EFCB90007EE0FFE4FCFDFEEB2FFFEE3AD9
:10154F00FEED39FDEC38FC90007A120A4890007AD3
:10155F00E0FCA3E0FDA3E0FEA3E0FF90007FE0F836
:10156F00A3E0F9A3E0FAA3E0FBD312095950030259
:10157F0014AC900078E0F0A3E04404F00214AC90B7
:10158F000079E020E003E48043900074E0FBA3E0E7
:10159F00FAA3E0F9EA494B6026900071E0FBA3E063
:1015AF00FAA3E024FFF9EA34FFFAEBC0E0EAC0E067
:1015BF00E9C0E0A3E0FBA3E0FAA3E0F9120BC790A8
:1015CF000078E0FAA3E0FB30E20774FFFFFEFDFCBA
:1015DF0022EB90007A30E10EE0FCA3E0FDA3E0FEE9
:1015EF00A3E0FF020B17E0FCA3E0FDA3E0FEA3E0E6
:0215FF00FF22C9
:100A8500BB010CE58229F582E5833AF583E0225026
:100A950006E92582F8E622BBFE06E92582F8E22270
:0D0AA500E58229F582E5833AF583E493228A
:100AB200C5F0F8A3E028F0C5F0F8E58215827002CF
:060AC2001583E038F0226C
:100AC800E88FF0A4CC8BF0A42CFCE98EF0A42CFCCD
:100AD8008AF0EDA42CFCEA8EF0A4CDA8F08BF0A44B
:100AE8002DCC3825F0FDE98FF0A42CCD35F0FCEBAA
:100AF8008EF0A4FEA9F0EB8FF0A4CFC5F02ECD396F
:0F0B0800FEE43CFCEAA42DCE35F0FDE43CFC22DB
:0E0B1700C3E49FFFE49EFEE49DFDE49CFC22EF
:0C0B2500E6FC08E6FD08E6FE08E6FF22FC
:0C0B3100E0FCA3E0FDA3E0FEA3E0FF2237
:0C0B3D00E2FC08E2FD08E2FE08E2FF22F4
:100B4900E493FC740193FD740293FE740393FF22F2
:0D0B5900E6FB08E6F908E6FA08E6CBF8220C
:0C0B6600E0F8A3E0F9A3E0FAA3E0FB2212
:0D0B7200E2FB08E2F908E2FA08E2CBF82203
:100B7F00E493F8740193F9740293FA740393FB22CC
:0C0B8F00ECF608EDF608EEF608EFF62292
:0C0B9B00ECF208EDF208EEF208EFF22296
:100BA700F8E0FBA3A3E0F925F0F0E58215827002D7
:070BB7001583E0FA38F0227B
:090BBE00EBF0A3EAF0A3E9F02238
:100BC700BB011A89828A83D0F0D0E0F8D0E0F9D04F
:100BD700E0FAD0E0FBE8C0E0C0F0020BBE5016E937
:100BE700F8D083D082D0E0F9D0E0FAD0E0FBC08221
:100BF700C083020C3CBBFE16E9F8D083D082D0E05C
:0F0C0700F9D0E0FAD0E0FBC082C083020C452296
:100C1600D083D082F8E4937012740193700DA3A36D
:100C260093F8740193F5828883E473740293686081
:060C3600EFA3A3A380DF81
:1019D600EFB40A07740D1219E1740A309811A89928
:1019E600B8130CC2983098FDA899C298B811F63071
:0719F60099FDC299F5992249
:090C3C00EBF608EAF608E9F622DD
:090C4500EBF208EAF208E9F222E0
:00000001FF
